:100000000C945D000C9485000C9485000C94850084
:100010000C9485000C9485000C9485000C9485004C
:100020000C9485000C9485000C9485000C9485003C
:100030000C9485000C9485000C9485000C9485002C
:100040000C94FF010C9485000C946F020C944902EF
:100050000C9485000C9485000C9485000C9485000C
:100060000C9485000C94850000000008000201003B
:100070000003040700000000000000000000000072
:10008000250028002B0000000000240027002A0083
:10009000040404040404040402020202020203032E
:1000A0000303030301020408102040800102040836
:1000B0001020010204081020630411241FBECFEF9A
:1000C000D8E0DEBFCDBF21E0A2E1B1E001C01D92CA
:1000D000AA3DB207E1F711E0A0E0B1E0E0E3F9E00A
:1000E00002C005900D92A231B107D9F710E0CDE51D
:1000F000D0E004C02197FE010E949004CC35D107C6
:10010000C9F70E94A1020C9496040C94000090E0A0
:10011000FC01EC55FF4F249180579F4FFC018491C7
:10012000882399F090E0880F991FFC01EA57FF4F50
:10013000A591B491FC01E458FF4F859194918FB73C
:10014000F894EC91E22BEC938FBF089590E0FC01C2
:10015000E859FF4F2491FC01EC55FF4F3491FC010D
:10016000E057FF4FE491EE23C9F0222339F023300A
:1001700001F1A8F4213019F1223029F1F0E0EE0F5D
:10018000FF1FE458FF4FA591B4918FB7F894EC91FD
:10019000611126C030953E233C938FBF08952730D0
:1001A000A9F02830C9F0243049F7809180008F7D74
:1001B00003C0809180008F7780938000DFCF84B56B
:1001C0008F7784BDDBCF84B58F7DFBCF8091B0006E
:1001D0008F778093B000D2CF8091B0008F7DF9CF20
:1001E0003E2BDACFAF92BF92CF92DF92EF92FF9287
:1001F0000F931F93CF93DF936C017B018B01040F4F
:10020000151FEB015E01AE18BF08C017D10759F0EA
:100210006991D601ED91FC910190F081E02DC6012C
:100220000995892B79F7C501DF91CF911F910F9126
:10023000FF90EF90DF90CF90BF90AF900895FC01BA
:10024000538D448D252F30E0842F90E0821B930B3B
:10025000541710F0CF96089501970895FC01918DE1
:10026000828D981761F0A28DAE0FBF2FB11D5D96E4
:100270008C91928D9F5F9F73928F90E008958FEF86
:100280009FEF0895FC01918D828D981731F0828D3A
:10029000E80FF11D858D90E008958FEF9FEF089591
:1002A000FC01918D228D892F90E0805C9F4F821BF5
:1002B00091098F739927089582E191E00E9450017E
:1002C00021E0892B09F420E0822F089580E090E05E
:1002D000892B29F00E945C0181110C940000089583
:1002E000FC01A48DA80FB92FB11DA35ABF4F2C91AB
:1002F000848D90E001968F739927848FA689B789A2
:100300002C93A089B1898C91837080648C93938D98
:10031000848D981306C00288F389E02D80818F7D3B
:1003200080830895EF92FF920F931F93CF93DF93F3
:10033000EC0181E0888F9B8D8C8D98131AC0E88921
:10034000F989808185FF15C09FB7F894EE89FF89F0
:100350006083E889F98980818370806480839FBF8E
:1003600081E090E0DF91CF911F910F91FF90EF908E
:100370000895F62E0B8D10E00F5F1F4F0F7311279E
:10038000E02E8C8D8E110CC00FB607FCFACFE889D9
:10039000F989808185FFF5CFCE010E947001F1CFF0
:1003A000EB8DEC0FFD2FF11DE35AFF4FF0829FB74D
:1003B000F8940B8FEA89FB8980818062CFCFCF933D
:1003C000DF93EC01888D8823B9F0AA89BB89E8897D
:1003D000F9898C9185FD03C0808186FD0DC00FB623
:1003E00007FCF7CF8C9185FFF2CF808185FFEDCFA1
:1003F000CE010E947001E9CFDF91CF9108951F9245
:100400000F920FB60F9211242F933F938F939F93C8
:10041000AF93BF938091D6019091D701A091D8015D
:10042000B091D9013091D50123E0230F2D3758F534
:100430000196A11DB11D2093D5018093D601909303
:10044000D701A093D801B093D9018091D1019091A7
:10045000D201A091D301B091D4010196A11DB11D8B
:100460008093D1019093D201A093D301B093D40192
:10047000BF91AF919F918F913F912F910F900FBEA0
:100480000F901F90189526E8230F0296A11DB11D0D
:10049000D2CF1F920F920FB60F9211242F933F933A
:1004A0004F935F936F937F938F939F93AF93BF937C
:1004B000EF93FF9382E191E00E947001FF91EF9131
:1004C000BF91AF919F918F917F916F915F914F916C
:1004D0003F912F910F900FBE0F901F9018951F9274
:1004E0000F920FB60F9211242F938F939F93EF9338
:1004F000FF93E0912201F09123018081E091280196
:10050000F091290182FD1BC0908180912B018F5FAA
:100510008F7320912C01821741F0E0912B01F0E0C4
:10052000EE5EFE4F958F80932B01FF91EF919F918F
:100530008F912F910F900FBE0F901F901895808173
:10054000F4CF789484B5826084BD84B5816084BD25
:1005500085B5826085BD85B5816085BD80916E0061
:10056000816080936E001092810080918100826092
:1005700080938100809181008160809381008091CF
:1005800080008160809380008091B10084608093BE
:10059000B1008091B00081608093B00080917A00BA
:1005A000846080937A0080917A00826080937A00E0
:1005B00080917A00816080937A0080917A008068CF
:1005C00080937A001092C100E0912201F091230102
:1005D00082E08083E0911E01F0911F011082E09182
:1005E0002001F091210180E1808310922A01E091A5
:1005F0002601F091270186E08083E0912401F091AB
:100600002501808180618083E0912401F0912501A2
:10061000808188608083E0912401F09125018081B0
:1006200080688083E0912401F091250180818F7D95
:1006300080838DE00E94870083E00E94870060E055
:1006400083E00E94A60089E00E94870060E089E0C4
:100650000E94A60082E191E00E945001892BD1F313
:1006600091E7E92E90E0F92E00E010E027E4C22E99
:100670002AE0D22E82E191E00E945001892B09F0FC
:100680006EC030E020E08091C9019091CA019827A6
:10069000892798279093C2018093C101C091CB0113
:1006A000D091CC01DC27CD27DC27D093C401C093A7
:1006B000C3018091CD019091CE0198278927982779
:1006C0009093C6018093C501232B09F4E3C01092D7
:1006D000AF011092B0011092B1011092B2011092CC
:1006E000B3011092B4011092B5011092B6011092AC
:1006F000B7011092B8011092B9011092BA0110928C
:10070000BB011092BC011092BD011092BE01D092AB
:10071000C001C092BF0189E00E948700209709F0C4
:1007200073C060E089E00E94A6006091C10183E08F
:100730000E94A60042E150E06FEA71E082E191E0A0
:100740000E94F20082E191E00E9450011816190601
:100750000CF0A0C082E191E00E942E01F3CF87EC63
:10076000A82E81E0B82ED0E0C0E02FB7F894809199
:10077000D6019091D701A091D801B091D9012FBF96
:1007800080931A0190931B01A0931C01B0931D014B
:1007900082E191E00E942E0197FF88C02FB7F89464
:1007A0008091D6019091D701A091D801B091D90143
:1007B0002FBF40911A0150911B0160911C01709153
:1007C0001D01841B950BA60BB70B40911601509190
:1007D0001701609118017091190184179507A607F8
:1007E000B707B0F28091C7019091C8018534954454
:1007F00009F047CF8091CF019091D0018634964483
:1008000009F03FCF9E013FCFCF3FD10511F461E00A
:1008100089CFF7018491833019F140F48130B1F030
:100820008230C9F0C038D10594F77BCF873011F101
:10083000883041F18430B1F78091800080628093EC
:100840008000D0938B00C0938A006FCF84B58068FE
:1008500084BDC7BD6ACF84B5806284BDC8BD65CF85
:1008600080918000806880938000D0938900C0933D
:1008700088005BCF8091B00080688093B000C09307
:10088000B30053CF8091B00080628093B000C093DA
:10089000B4004BCF0115110509F4ECCE0E945C01A8
:1008A000882309F4E7CE0E940000E4CE8A30910547
:1008B00009F498CFF50181935F012196CA30D105E3
:1008C00009F053CF8FCFE2E1F1E01382128288EE7C
:1008D00093E0A0E0B0E084839583A683B78384E0AF
:1008E00091E09183808385EC90E09587848784EC08
:1008F00090E09787868780EC90E0918B808B81ECED
:1009000090E0938B828B82EC90E0958B848B86ECCD
:1009100090E0978B868B118E128E138E148E089515
:10092000EE0FFF1F0590F491E02D0994F894FFCF8E
:10093000000000009201F2001F01DF0150012E01B2
:02094000420172
:00000001FF
